{
  "address": "0xb8f8628EA0BCAaEbFF3013Ad0107Eac744902935",
  "abi": [
    {
      "inputs": [
        {
          "internalType": "address",
          "name": "priceFeedAddress",
          "type": "address"
        }
      ],
      "stateMutability": "nonpayable",
      "type": "constructor"
    },
    {
      "inputs": [],
      "name": "DropSafe_notEnoughFund",
      "type": "error"
    },
    {
      "inputs": [],
      "name": "DropSafe_notOwner",
      "type": "error"
    },
    {
      "stateMutability": "payable",
      "type": "fallback"
    },
    {
      "inputs": [
        {
          "internalType": "address",
          "name": "",
          "type": "address"
        }
      ],
      "name": "addressToAmountFunded",
      "outputs": [
        {
          "internalType": "uint256",
          "name": "",
          "type": "uint256"
        }
      ],
      "stateMutability": "view",
      "type": "function"
    },
    {
      "inputs": [],
      "name": "fund",
      "outputs": [],
      "stateMutability": "payable",
      "type": "function"
    },
    {
      "inputs": [
        {
          "internalType": "uint256",
          "name": "",
          "type": "uint256"
        }
      ],
      "name": "funder",
      "outputs": [
        {
          "internalType": "address",
          "name": "",
          "type": "address"
        }
      ],
      "stateMutability": "view",
      "type": "function"
    },
    {
      "inputs": [],
      "name": "i_owner",
      "outputs": [
        {
          "internalType": "address",
          "name": "",
          "type": "address"
        }
      ],
      "stateMutability": "view",
      "type": "function"
    },
    {
      "inputs": [],
      "name": "minUSD",
      "outputs": [
        {
          "internalType": "uint256",
          "name": "",
          "type": "uint256"
        }
      ],
      "stateMutability": "view",
      "type": "function"
    },
    {
      "inputs": [],
      "name": "priceFeed",
      "outputs": [
        {
          "internalType": "contract AggregatorV3Interface",
          "name": "",
          "type": "address"
        }
      ],
      "stateMutability": "view",
      "type": "function"
    },
    {
      "inputs": [],
      "name": "withdraw",
      "outputs": [],
      "stateMutability": "nonpayable",
      "type": "function"
    },
    {
      "stateMutability": "payable",
      "type": "receive"
    }
  ],
  "transactionHash": "0xbd1d3626a49746b70236c13fe289c819fceffa11c781240eb79e396588a6d8b1",
  "args": [
    "0x694AA1769357215DE4FAC081bf1f309aDC325306"
  ],
  "numDeployments": 1,
  "solcInputHash": "f111c2b9d729b523c15dc5c3fc5f014f",
  "bytecode": "0x60a060405234801561001057600080fd5b50604051610e49380380610e4983398181016040528101906100329190610112565b3373ffffffffffffffffffffffffffffffffffffffff1660808173ffffffffffffffffffffffffffffffffffffffff1660601b81525050806000806101000a81548173ffffffffffffffffffffffffffffffffffffffff021916908373ffffffffffffffffffffffffffffffffffffffff1602179055505061013f565b600080fd5b600073ffffffffffffffffffffffffffffffffffffffff82169050919050565b60006100df826100b4565b9050919050565b6100ef816100d4565b81146100fa57600080fd5b50565b60008151905061010c816100e6565b92915050565b600060208284031215610128576101276100af565b5b6000610136848285016100fd565b91505092915050565b60805160601c610ce56101646000396000818161032001526105370152610ce56000f3fe6080604052600436106100745760003560e01c8063741bef1a1161004e578063741bef1a1461011e578063b60d428814610149578063dba6335f14610153578063dc992aa01461017e57610083565b80631f2c92381461008d5780633ccfd60b146100ca5780633e47d6f3146100e157610083565b36610083576100816101a9565b005b61008b6101a9565b005b34801561009957600080fd5b506100b460048036038101906100af9190610724565b6102df565b6040516100c19190610792565b60405180910390f35b3480156100d657600080fd5b506100df61031e565b005b3480156100ed57600080fd5b50610108600480360381019061010391906107d9565b6104f9565b6040516101159190610815565b60405180910390f35b34801561012a57600080fd5b50610133610511565b604051610140919061088f565b60405180910390f35b6101516101a9565b005b34801561015f57600080fd5b50610168610535565b6040516101759190610792565b60405180910390f35b34801561018a57600080fd5b50610193610559565b6040516101a09190610815565b60405180910390f35b60006101de60008054906101000a900473ffffffffffffffffffffffffffffffffffffffff163461056690919063ffffffff16565b90506802b5e3af16b1880000811015610223576040517f27b9fddf00000000000000000000000000000000000000000000000000000000815260040160405180910390fd5b6001339080600181540180825580915050600190039060005260206000200160009091909190916101000a81548173ffffffffffffffffffffffffffffffffffffffff021916908373ffffffffffffffffffffffffffffffffffffffff16021790555034600260003373ffffffffffffffffffffffffffffffffffffffff1673ffffffffffffffffffffffffffffffffffffffff16815260200190815260200160002060008282546102d591906108d9565b9250508190555050565b600181815481106102ef57600080fd5b906000526020600020016000915054906101000a900473ffffffffffffffffffffffffffffffffffffffff1681565b7f000000000000000000000000000000000000000000000000000000000000000073ffffffffffffffffffffffffffffffffffffffff163373ffffffffffffffffffffffffffffffffffffffff16146103a3576040517f33a5e9a500000000000000000000000000000000000000000000000000000000815260040160405180910390fd5b60005b60018054905081101561044f576000600182815481106103c9576103c861092f565b5b9060005260206000200160009054906101000a900473ffffffffffffffffffffffffffffffffffffffff1690506000600260008373ffffffffffffffffffffffffffffffffffffffff1673ffffffffffffffffffffffffffffffffffffffff168152602001908152602001600020819055505080806104479061095e565b9150506103a6565b50600067ffffffffffffffff81111561046b5761046a6109a7565b5b6040519080825280602002602001820160405280156104995781602001602082028036833780820191505090505b50600190805190602001906104af929190610642565b503373ffffffffffffffffffffffffffffffffffffffff166108fc479081150290604051600060405180830381858888f193505050501580156104f6573d6000803e3d6000fd5b50565b60026020528060005260406000206000915090505481565b60008054906101000a900473ffffffffffffffffffffffffffffffffffffffff1681565b7f000000000000000000000000000000000000000000000000000000000000000081565b6802b5e3af16b188000081565b600080610572836105a2565b90506000670de0b6b3a7640000858361058b91906109d6565b6105959190610a5f565b9050809250505092915050565b6000808273ffffffffffffffffffffffffffffffffffffffff1663feaf968c6040518163ffffffff1660e01b815260040160a06040518083038186803b1580156105eb57600080fd5b505afa1580156105ff573d6000803e3d6000fd5b505050506040513d601f19601f820116820180604052508101906106239190610b1d565b5050509150506402540be4008161063a9190610b98565b915050919050565b8280548282559060005260206000209081019282156106bb579160200282015b828111156106ba5782518260006101000a81548173ffffffffffffffffffffffffffffffffffffffff021916908373ffffffffffffffffffffffffffffffffffffffff16021790555091602001919060010190610662565b5b5090506106c891906106cc565b5090565b5b808211156106e55760008160009055506001016106cd565b5090565b600080fd5b6000819050919050565b610701816106ee565b811461070c57600080fd5b50565b60008135905061071e816106f8565b92915050565b60006020828403121561073a576107396106e9565b5b60006107488482850161070f565b91505092915050565b600073ffffffffffffffffffffffffffffffffffffffff82169050919050565b600061077c82610751565b9050919050565b61078c81610771565b82525050565b60006020820190506107a76000830184610783565b92915050565b6107b681610771565b81146107c157600080fd5b50565b6000813590506107d3816107ad565b92915050565b6000602082840312156107ef576107ee6106e9565b5b60006107fd848285016107c4565b91505092915050565b61080f816106ee565b82525050565b600060208201905061082a6000830184610806565b92915050565b6000819050919050565b600061085561085061084b84610751565b610830565b610751565b9050919050565b60006108678261083a565b9050919050565b60006108798261085c565b9050919050565b6108898161086e565b82525050565b60006020820190506108a46000830184610880565b92915050565b7f4e487b7100000000000000000000000000000000000000000000000000000000600052601160045260246000fd5b60006108e4826106ee565b91506108ef836106ee565b9250827fffffffffffffffffffffffffffffffffffffffffffffffffffffffffffffffff03821115610924576109236108aa565b5b828201905092915050565b7f4e487b7100000000000000000000000000000000000000000000000000000000600052603260045260246000fd5b6000610969826106ee565b91507fffffffffffffffffffffffffffffffffffffffffffffffffffffffffffffffff82141561099c5761099b6108aa565b5b600182019050919050565b7f4e487b7100000000000000000000000000000000000000000000000000000000600052604160045260246000fd5b60006109e1826106ee565b91506109ec836106ee565b9250817fffffffffffffffffffffffffffffffffffffffffffffffffffffffffffffffff0483118215151615610a2557610a246108aa565b5b828202905092915050565b7f4e487b7100000000000000000000000000000000000000000000000000000000600052601260045260246000fd5b6000610a6a826106ee565b9150610a75836106ee565b925082610a8557610a84610a30565b5b828204905092915050565b600069ffffffffffffffffffff82169050919050565b610aaf81610a90565b8114610aba57600080fd5b50565b600081519050610acc81610aa6565b92915050565b6000819050919050565b610ae581610ad2565b8114610af057600080fd5b50565b600081519050610b0281610adc565b92915050565b600081519050610b17816106f8565b92915050565b600080600080600060a08688031215610b3957610b386106e9565b5b6000610b4788828901610abd565b9550506020610b5888828901610af3565b9450506040610b6988828901610b08565b9350506060610b7a88828901610b08565b9250506080610b8b88828901610abd565b9150509295509295909350565b6000610ba382610ad2565b9150610bae83610ad2565b9250827f7fffffffffffffffffffffffffffffffffffffffffffffffffffffffffffffff0482116000841360008413161615610bed57610bec6108aa565b5b817f80000000000000000000000000000000000000000000000000000000000000000583126000841260008413161615610c2a57610c296108aa565b5b827f80000000000000000000000000000000000000000000000000000000000000000582126000841360008412161615610c6757610c666108aa565b5b827f7fffffffffffffffffffffffffffffffffffffffffffffffffffffffffffffff0582126000841260008412161615610ca457610ca36108aa565b5b82820290509291505056fea2646970667358221220d0cb40d100dfee2a680af0880e60babf77d18abfb89fba5a48d5bba8a3c41e8664736f6c63430008080033",
  "devdoc": {
    "kind": "dev",
    "methods": {},
    "version": 1
  },
  "userdoc": {
    "kind": "user",
    "methods": {},
    "version": 1
  },
  "storageLayout": {
    "storage": [
      {
        "astId": 370,
        "contract": "contracts/DropSafe.sol:DropSafe",
        "label": "priceFeed",
        "offset": 0,
        "slot": "0",
        "type": "t_contract(AggregatorV3Interface)356"
      },
      {
        "astId": 373,
        "contract": "contracts/DropSafe.sol:DropSafe",
        "label": "funder",
        "offset": 0,
        "slot": "1",
        "type": "t_array(t_address)dyn_storage"
      },
      {
        "astId": 377,
        "contract": "contracts/DropSafe.sol:DropSafe",
        "label": "addressToAmountFunded",
        "offset": 0,
        "slot": "2",
        "type": "t_mapping(t_address,t_uint256)"
      }
    ],
    "types": {
      "t_address": {
        "encoding": "inplace",
        "label": "address",
        "numberOfBytes": "20"
      },
      "t_array(t_address)dyn_storage": {
        "base": "t_address",
        "encoding": "dynamic_array",
        "label": "address[]",
        "numberOfBytes": "32"
      },
      "t_contract(AggregatorV3Interface)356": {
        "encoding": "inplace",
        "label": "contract AggregatorV3Interface",
        "numberOfBytes": "20"
      },
      "t_mapping(t_address,t_uint256)": {
        "encoding": "mapping",
        "key": "t_address",
        "label": "mapping(address => uint256)",
        "numberOfBytes": "32",
        "value": "t_uint256"
      },
      "t_uint256": {
        "encoding": "inplace",
        "label": "uint256",
        "numberOfBytes": "32"
      }
    }
  }
}